:100000000C942A000C9442030C9447000C94470073
:100010000C9447000C9447000C9447000C94470044
:100020000C9447000C9447000C94D1030C944700A7
:100030000C9447000C9447000C9447000C94470024
:100040000C9447000C9447000C9447000C94470014
:100050000C94470011241FBECFE5D8E0DEBFCDBF12
:1000600010E0A0E6B0E0EEEFF9E002C005900D92DE
:10007000A036B107D9F720E0A0E6B0E001C01D929C
:10008000AA36B207E1F70E9449000C94FD040C94D3
:1000900000002FEF83ED90E3215080409040E1F786
:1000A00000C000000E943D0183E00E9401020E9406
:1000B000780064E181E00E949C00C82F4C2F64E12D
:1000C00081E00E947B006C2F70E080E090E00E9455
:1000D00056040E947801CF5F2FEF89E698E1215006
:1000E00080409040E1F700C000000E94FD01E6CF93
:1000F0000E94690308951F93CF93DF93182FD62F83
:10010000C42F0E946F03812F80650E9492038D2F60
:100110000E94AD038C2F0E94AD030E947D032FEF40
:1001200081EE94E0215080409040E1F700C0000053
:10013000DF91CF911F910895CF93DF93C82FD62FD2
:100140000E946F03C0658C2F0E9492038D2F0E9426
:10015000AD030E9484038C2F0E949F030E94BC0366
:10016000C82F0E947D038C2FDF91CF910895CF93EC
:10017000C82F61E08BE00E94AC0260E086E10E9443
:10018000AC028BB39C2F969598778778892B8BBB85
:1001900061E08CE00E94AC028FE99FE00197F1F7EB
:1001A00000C0000060E08CE00E94AC028FE19EE4A1
:1001B0000197F1F700C000008BB3CC0FCC0FCC0F30
:1001C000C8778778C82BCBBB61E08CE00E94AC027B
:1001D0008FE99FE00197F1F700C0000060E08CE03C
:1001E0000E94AC028FE19EE40197F1F700C000008D
:1001F000CF910895CF93C82F60E08BE00E94AC02AE
:1002000060E086E10E94AC028BB39C2F96959877B4
:100210008778892B8BBB61E08CE00E94AC028FE970
:100220009FE00197F1F700C0000060E08CE00E94C1
:10023000AC028FE19EE40197F1F700C000008BB3A0
:10024000CC0FCC0FCC0FC8778778C82BCBBB61E025
:100250008CE00E94AC028FE99FE00197F1F700C0AB
:10026000000060E08CE00E94AC028FE19EE4019708
:10027000F1F700C00000CF91089561E08BE00E948B
:10028000160261E08CE00E94160261E086E10E94A5
:10029000160261E08DE00E94160261E08EE00E948D
:1002A000160261E08FE00E94160261E080E10E9488
:1002B00016022FEF89E698E1215080409040E1F747
:1002C00000C0000083E30E94FA0082E30E94FA006B
:1002D00088E20E94FA008CE00E94FA0082E00E940C
:1002E000FA0086E00E94FA0081E00E94FA00089578
:1002F0004F925F926F927F92AF92BF92CF92DF92B6
:10030000EF92FF921F93CF93DF93CDB7DEB72A977B
:100310000FB6F894DEBF0FBECDBF0E9420046B0164
:100320007C01FE0131968AE0DF011D928A95E9F792
:10033000C114D104E104F10421F480E30E94B70068
:1003400048C0FF2084F48DE20E94B700F094E0944E
:10035000D094C094C11CD11CE11CF11CC114D10467
:10036000E104F104B1F110E00F2EFAE04F2E512C10
:10037000612C712CF02D01C0182FAA24A394B12C4C
:10038000AC0EBD1EA10EB11C17FDBA94C701B6017B
:10039000A30192010E94DE04F501608381E0810FD8
:1003A000C22ED32EE42EF52EC114D104E104F104A3
:1003B00019F7112374F0E1E0F0E0EC0FFD1FE10FFD
:1003C000F11D17FDFA958081805D0E94B7001150E4
:1003D00092F72A960FB6F894DEBF0FBECDBFDF911D
:1003E000CF911F91FF90EF90DF90CF90BF90AF9093
:1003F0007F906F905F904F90089581E00E94FA0087
:100400000895823049F0833061F0813071F461E009
:100410008EE10E941602089561E08FE10E941602AB
:10042000089561E080E20E94160208959DEC899F84
:10043000912D1124969596959695392F330F232F4C
:10044000220F220F230F821B662321F0613009F453
:1004500044C008959230B9F018F4913031F0089505
:100460009330F9F0943059F108954AB321E030E027
:10047000B90102C0660F771F8A95E2F7CB0180951C
:1004800084238ABB089547B321E030E0B90102C05C
:10049000660F771F8A95E2F7CB018095842387BB8F
:1004A000089544B321E030E0B90102C0660F771F20
:1004B0008A95E2F7CB018095842384BB089541B3EC
:1004C00021E030E0B90102C0660F771F8A95E2F79C
:1004D000CB018095842381BB08959230B1F018F44C
:1004E000913031F008959330E9F0943041F108955E
:1004F0004AB321E030E0B90102C0660F771F8A9548
:10050000E2F7CB01842B8ABB089547B321E030E0AA
:10051000B90102C0660F771F8A95E2F7CB01842BE1
:1005200087BB089544B321E030E0B90102C0660FF3
:10053000771F8A95E2F7CB01842B84BB089541B3E2
:1005400021E030E0B90102C0660F771F8A95E2F71B
:10055000CB01842B81BB08959DEC899F912D1124A3
:10056000969596959695392F330F232F220F220FAC
:10057000230F821B662321F0613009F444C00895E3
:100580009230B9F018F4913031F008959330F9F0C9
:10059000943059F108954BB321E030E0B90102C025
:1005A000660F771F8A95E2F7CB01809584238BBB7A
:1005B000089548B321E030E0B90102C0660F771F0B
:1005C0008A95E2F7CB018095842388BB089545B3D3
:1005D00021E030E0B90102C0660F771F8A95E2F78B
:1005E000CB018095842385BB089542B321E030E0A0
:1005F000B90102C0660F771F8A95E2F7CB0180959B
:10060000842382BB08959230B1F018F4913031F018
:1006100008959330E9F0943041F108954BB321E00F
:1006200030E0B90102C0660F771F8A95E2F7CB016F
:10063000842B8BBB089548B321E030E0B90102C0A0
:10064000660F771F8A95E2F7CB01842B88BB08954C
:1006500045B321E030E0B90102C0660F771F8A95EB
:10066000E2F7CB01842B85BB089542B321E030E053
:10067000B90102C0660F771F8A95E2F7CB01842B80
:1006800082BB08951F920F920FB60F9211242F93E1
:100690003F934F935F936F937F938F939F93AF930A
:1006A000BF93EF93FF93E0916800F0916900099583
:1006B000FF91EF91BF91AF919F918F917F916F913A
:1006C0005F914F913F912F910F900FBE0F901F9010
:1006D00018958CE080B986B7846086BF089586B788
:1006E000806286BF86B7806886BF06B607FEFDCFEC
:1006F00081B1887F8830E1F7089586B7806186BF31
:1007000086B7806886BF089586B7806286BF86B741
:10071000806886BF06B607FEFDCF81B1887F803135
:10072000E1F70895880F83B986B7806886BF06B65B
:1007300007FEFDCF81B1887F8831E1F70895880FEA
:10074000816083B986B7806886BF06B607FEFDCF95
:1007500081B1887F8034E1F7089583B986B78F7DB2
:1007600086BF86B7806886BF06B607FEFDCF81B11B
:10077000887F8832E1F7089586B78F7D86BF86B778
:100780008F7E86BF86B7806486BF86B7806886BF47
:1007900006B607FEFDCF81B1887F8035E1F783B1D2
:1007A00008951F920F920FB60F9211242F933F932B
:1007B0004F935F936F937F938F939F93AF93BF9369
:1007C000EF93FF938091600090916100A09162008F
:1007D000B09163000196A11DB11D809360009093BC
:1007E0006100A0936200B093630040916400509157
:1007F0006500609166007091670084179507A607F1
:10080000B70769F4E0916800F091690009951092CA
:100810006000109261001092620010926300FF91DC
:10082000EF91BF91AF919F918F917F916F915F9168
:100830004F913F912F910F900FBE0F901F901895E1
:100840000E9427046894B1110C94B60408950E9484
:100850009B0488F09F5798F0B92F9927B751B0F0B3
:10086000E1F0660F771F881F991F1AF0BA95C9F734
:1008700014C0B13091F00E94B504B1E008950C9419
:10088000B504672F782F8827B85F39F0B93FCCF3CC
:10089000869577956795B395D9F73EF490958095B1
:1008A000709561957F4F8F4F9F4F0895E89409C0D1
:1008B00097FB3EF490958095709561957F4F8F4F93
:1008C0009F4F9923A9F0F92F96E9BB279395F695A9
:1008D000879577956795B795F111F8CFFAF4BB0F27
:1008E00011F460FF1BC06F5F7F4F8F4F9F4F16C08B
:1008F000882311F096E911C0772321F09EE8872F15
:10090000762F05C0662371F096E8862F70E060E0D0
:100910002AF09A95660F771F881FDAF7880F969549
:10092000879597F9089557FD9058440F551F59F032
:100930005F3F71F04795880F97FB991F61F09F3FCC
:1009400079F087950895121613061406551FF2CFF5
:100950004695F1DF08C0161617061806991FF1CF45
:1009600086957105610508940895E894BB2766276C
:100970007727CB0197F90895A1E21A2EAA1BBB1B7A
:10098000FD010DC0AA1FBB1FEE1FFF1FA217B3075B
:10099000E407F50720F0A21BB30BE40BF50B661F71
:1009A000771F881F991F1A9469F760957095809535
:1009B00090959B01AC01BD01CF010895052E97FBD9
:1009C0001EF400940E94F50457FD07D00E94BC0459
:1009D00007FC03D04EF40C94F504509540953095E7
:1009E00021953F4F4F4F5F4F08959095809570959B
:0E09F00061957F4F8F4F9F4F0895F894FFCF72
:00000001FF
